:020000040800F2
:10000000F002002001010008150200081702000894
:100010001B0200081F020008230200080000000065
:10002000000000000000000000000000270200089F
:1000300029020008000000002B0200082D02000821
:100040001701000817010008170100081701000830
:100050001701000817010008170100081701000820
:100060001701000817010008170100081701000810
:100070001701000817010008170100081701000800
:1000800017010008170100081701000817010008F0
:1000900017010008170100081701000817010008E0
:1000A00017010008170100081701000817010008D0
:1000B00017010008170100081701000817010008C0
:1000C00017010008170100081701000817010008B0
:1000D000170100080F030008E304000817010008D7
:1000E000170100081701000817010008DFF80CD0FD
:1000F00001F0FEFB004800474D010008F00200201F
:1001000005480047FEE7FEE7FEE7FEE7FEE7FEE7FD
:10011000FEE7FEE7FEE7FEE7ED00000810B5044647
:1001200003E0207800F0CFF9641C20780028F8D193
:1001300010BD002107E0002200E0521C40F2C44341
:100140009A42FAD3491C8142F5D3704786B01421F4
:1001500001A801F064F8002401F030F800F068F81C
:1001600000F066F940E04FF49670FFF7E2FF1F4899
:1001700001681F48006801F05DF883461D4801686A
:10018000584601F057F882461B4901F0ABF881460A
:1001900001F05AF90746194A194B01F0E1F80546F2
:1001A00001F065F90446204601F04EF905462A465D
:1001B0000B4614A101A801F0DFFB002240F224410C
:1001C000134800F026FE01A8FFF7A8FF012240F225
:1001D00024410F4800F01DFE0448006805490860EE
:1001E0000348006801490860BDE7000004000020E2
:1001F0000000002008000020000040409A999999D2
:100200009999A93F504D32353A252E32660D0A0094
:1002100000380140704700BFFEE700BFFEE700BFA7
:10022000FEE700BFFEE77047704770477047000069
:1002300000B587B0012144F2040000F0C3FC4FF484
:100240000070ADF8180018208DF81B0003208DF801
:100250001A0006A9D24800F019FA4FF48060ADF8F0
:10026000180004208DF81B0006A9CD4800F00EFAF6
:100270004FF4165002900020ADF80C00ADF80E00BF
:10028000ADF81000ADF814000C20ADF8120002A972
:10029000C44800F044FD0121C24800F0AEFD012237
:1002A00040F22551BF4800F0B4FD012240F2244144
:1002B000BC4800F0AEFD25208DF8040001208DF82B
:1002C00007008DF805008DF8060001A800F09BFEE0
:1002D00007B000BD10B504462146B24800F0F5FD58
:1002E00000BF8021AF4800F047FE0028F9D010BDC4
:1002F00010B504462021AB4800F03EFE08B90020AE
:1003000010BDA84800F0E5FD20700120F8E710B509
:1003100040F22551A34800F03BFE78B1A14800F01F
:10032000D8FDC1B2A0480478601C9F4A10709F4855
:10033000015540F225519B4800F050FE40F2244107
:10034000984800F025FE60B397480078092820D12E
:1003500096480078FF281CD194484078182818D176
:100360009249087901F06BF89149086091499048E9
:10037000006800F0B7FF8E4908608C49C87801F02A
:100380005EF804468A480168204600F053FF884919
:10039000086000208449087040F22441814800F040
:1003A0001DFE28217F4800F0F3FD18B128217D486B
:1003B00000F014FE40F646017A4800F0DDFD20B161
:1003C00040F64601774800F009FE0821754800F024
:1003D000D3FD30B1734800F07CFD0821714800F076
:1003E000D4FD04216F4800F0C7FD18B104216D4809
:1003F00000F0CBFD02216B4800F0BEFD18B10221D8
:10040000684800F0C2FD0121664800F0B5FD18B152
:100410000121644800F0B9FD40F22661614800F016
:10042000B7FD20B140F226615E4800F0D7FD10BD57
:1004300000B587B00121480400F0D1FB0420ADF8DD
:10044000180018208DF81B0003208DF81A0006A94B
:10045000534800F01BF90820ADF8180004208DF86F
:100460001B0006A94E4800F011F94FF416500290F7
:100470000020ADF80C00ADF80E00ADF81000ADF89E
:1004800014000C20ADF8120002A94B4800F047FC04
:100490000121494800F0B1FC012240F225514648B3
:1004A00000F0B7FC26208DF8040001208DF807002D
:1004B00002208DF8050001208DF8060001A800F04B
:1004C000A2FD07B000BD10B5044621463A4800F031
:1004D000FCFC00BF8021384800F04EFD0028F9D018
:1004E00010BD10B540F22551334800F051FD20B148
:1004F00040F22551304800F071FD40F224412E4871
:1005000000F046FD20B140F224412B4800F066FD8A
:100510002821294800F03CFD18B12821264800F088
:100520005DFD40F64601244800F026FD20B140F66E
:100530004601214800F052FD08211F4800F01CFD33
:1005400030B11D4800F0C5FC08211B4800F01DFD1E
:100550000421194800F010FD18B10421164800F0DC
:1005600014FD0221144800F007FD18B102211248C1
:1005700000F00BFD0121104800F0FEFC18B1012134
:100580000D4800F002FD40F226610B4800F000FD2E
:1005900020B140F22661084800F020FD10BD0000A7
:1005A00000080140003801400C0000202400002019
:1005B000000000200000C8420044004010B504467E
:1005C000C649601A8C422FD009DCC548204480B14E
:1005D000B0F5806F16D0B0F5006F4AD11BE0B0F5D2
:1005E000806F2AD0B0F5006F30D0B0F5406F40D1A9
:1005F00035E00121042000F0FFFA0021042000F082
:10060000FBFA37E00121082000F0F6FA002108206B
:1006100000F0F2FA2EE00121102000F0EDFA0021A6
:10062000102000F0E9FA25E00121202000F0E4FA92
:100630000021202000F0E0FA1CE00121402000F021
:10064000DBFA0021402000F0D7FA13E001218020DE
:1006500000F0D2FA0021802000F0CEFA0AE0012159
:10066000080200F0C9FA00214FF4807000F0C4FACB
:1006700000E000BF00BF10BD10B50121084600F02A
:10068000BBFA0021012000F0B7FA10BD2DE9F041BE
:10069000024600250026002000230024002791F8B0
:1006A00003C00CF00F0591F803C00CF0100CBCF166
:1006B000000F03D091F802C04CEA050591F800C084
:1006C000BCF1000F31D0146800202BE04FF0010C7A
:1006D0000CFA00F3B1F800C00CEA03069E4220D1E8
:1006E00083004FF00F0C0CFA03F7BC4305FA03FC30
:1006F0004CEA040491F803C0BCF1280F06D14FF076
:10070000010C0CFA00FCC2F814C00AE091F803C016
:10071000BCF1480F05D14FF0010C0CFA00FCC2F8F7
:1007200010C0401C0828D1D31460B1F800C0BCF13F
:10073000FF0F34DD546800202EE000F1080C4FF06C
:10074000010808FA0CF3B1F800C00CEA03069E4257
:1007500021D183004FF00F0C0CFA03F7BC4305FACC
:1007600003FC4CEA040491F803C0BCF1280F05D146
:1007700000F1080C08FA0CF8C2F8148091F803C0D4
:10078000BCF1480F07D100F1080C4FF0010808FA3E
:100790000CF8C2F81080401C0828CED35460BDE885
:1007A000F0814FF6FF710180022181700421C17038
:1007B00070470246002093680B400BB1012000E017
:1007C000002070470146886880B2704702460020CA
:1007D000D3680B400BB1012000E0002070470146B8
:1007E000C86880B2704701617047416170470AB1C3
:1007F000016100E041617047C16070474FF4803291
:100800000A4382618161826182698269704702461E
:100810000020344B18684FF68073184040EA0210ED
:100820000843304B186070472F49C8617047F0B5D6
:100830000A4600230024002100252A4E7168C0F3D7
:10084000034583B200F44016B6F5401F08D121F0ED
:100850007061244E766826F07066224F7E6012E04A
:1008600000F48016B6F5801F06D1032606FA05F4BB
:10087000A14341F0706106E0460D360103FA06F629
:10088000B14341F0706122B1460D360103FA06F61C
:100890003143144E7160F0BD30B500228B071C0F40
:1008A0000F2303FA04F20F4B08338C1053F8243053
:1008B00093430C4C08348D1044F8253023468C109B
:1008C00053F824308C07240F00FA04F42343054C1A
:1008D00008348D1044F8253030BD0000001401406C
:1008E00000F8FEBF0000014000002042DE48006822
:1008F00040F00100DC49086008464068DB490840D8
:10090000D949486008460068D9490840D649086076
:100910000846006820F4802008600846406820F4FB
:10092000FE004860002088607047CF49096821F4C4
:100930008031CD4A11601146096821F4802111608F
:10094000B0F5803F03D0B0F5802F0ED106E0C64948
:10095000096841F48031C44A116007E0C24909685E
:1009600041F4A021C04A116000E000BF00BF704701
:1009700010B501460022002300204A11012A02D1AD
:10098000B94C236806E0022A02D1B74C236A01E081
:10099000B54C636A01F01F02012494401C400CB165
:1009A000012000E0002010BD38B500200090002498
:1009B000002500BF3120FFF7DBFF05460098401CF3
:1009C00000901DB90098B0F5A06FF3D13120FFF76A
:1009D000CFFF08B1012400E00024204638BD0146C5
:1009E0000020A14A106820F0F80040EAC100106021
:1009F0007047A04908607047024600209A4B58682B
:100A000020F47C1042EA01031843974B586070476A
:100A100098490866704701460020934A506820F0C4
:100A200003000843506070478F48406800F00C0096
:100A30007047014600208C4A506820F0F0000843BF
:100A40005060704701460020874A506820F4E060FB
:100A500008435060704701460020834A506820F4E4
:100A6000605040EAC1005060704729B17E4A527A16
:100A700002437D4B5A7204E07B4A527A82437A4B9E
:100A80005A7270477B49D831086070470146002090
:100A9000754A506820F44040084350607047002178
:100AA000714A20321170704A82F82010012802D059
:100AB00004280AD104E001216B4A2032117005E0BC
:100AC0000521694A2032117000E000BF00BF704765
:100AD0006949086070476449096A0143624A1162C2
:100AE0007047654944390860704730B500210022DD
:100AF000002400235C4D6D6805F00C0121B1042930
:100B000005D0082923D105E05C4D056022E05B4D4E
:100B100005601FE0544D6D6805F47012022505EB69
:100B20009242514D6D6805F480341CB9544D5543C3
:100B300005600BE04C4D6D6805F400351DB1504D5E
:100B40005543056002E04D4D5543056002E04B4DB5
:100B5000056000BF00BF444D6D6805F0F001090954
:100B6000484D6B5C0568DD4045603F4D6D6805F4A0
:100B7000E061090A434D6B5C4568DD4085603A4D94
:100B80006D6805F46051C90A3E4D6B5C4568DD40F7
:100B9000C560354D6D6805F44041890B3A4D6B5C7D
:100BA000C568B5FBF3F5056130BD29B12E4A526920
:100BB00002432D4B5A6104E02B4A526982432A4B6F
:100BC0005A61704729B1284A92690243264B9A61BB
:100BD00004E0254A92698243234B9A61704729B108
:100BE000214AD2690243204BDA6104E01E4AD269ED
:100BF00082431D4BDA61704729B11B4AD268024318
:100C0000194BDA6004E0184AD2688243164BDA6066
:100C1000704729B1144A12690243134B1A6104E068
:100C2000114A12698243104B1A61704712494039C8
:100C3000086070470F49C86470470B49C871704716
:100C40000948406A40F08070074948627047014691
:100C50000020054A92680A400AB1012000E0002005
:100C60007047014988727047001002400000FFF889
:100C7000FFFFF6FE000042428004424200127A006A
:100C800000093D000D0000201D00002010B50446A5
:100C9000D749601A8C422BD006DCD648204498B144
:100CA000B0F5806F38D119E0B0F5806F2AD0B0F57B
:100CB0006C4F31D101218803FFF79EFF00214FF4D3
:100CC0008040FFF799FF28E001214804FFF7A1FFCA
:100CD00000214FF40030FFF79CFF1EE00121880443
:100CE000FFF797FF00214FF48020FFF792FF14E0F9
:100CF0000121C804FFF78DFF00214FF40020FFF70A
:100D000088FF0AE001210805FFF783FF00214FF467
:100D10008010FFF77EFF00E000BF00BF10BD2DE98F
:100D2000F04786B005460E460024A24600BF00BF2D
:100D300000272F462C8A4CF6FF700440F0880443AD
:100D40002C82AC894EF6F3100440B08831890843F8
:100D5000718908430443AC81AC8A4FF6FF400440DC
:100D6000B0890443AC8201A8FFF7BFFEA2488742C6
:100D700002D1DDF810A001E0DDF80CA00AEBCA00FA
:100D800000EB0A1031688900B0FBF1F86420B8FB71
:100D9000F0F004012009642101FB1089322000EBEE
:100DA0000910B0FBF1F000F00F0004432C8106B0F5
:100DB000BDE8F0874FF41651016000218180C180A9
:100DC00001810C21418100218181704710B50246CB
:100DD0000020108A4FF2FF0318400B884C882343F1
:100DE0008C882343CC8823431843108210BD0021F4
:100DF000018041808180C180704721B1828942F4A5
:100E00000052828104E082894DF6FF731A4082818C
:100E10007047F0B503460024002600250020184640
:100E2000C1F3421401F01F06012707FA06F5012C51
:100E300001D10C3004E0022C01D1103000E014305C
:100E40001AB107682F43076002E00768AF430760E5
:100E5000F0BD1AB1838A0B43838202E0838A8B43FD
:100E600083827047028A4FF6F0731A400282028A28
:100E70000A430282704782894FF2FF731A408281CF
:100E800082890A438281704721B1828942F002023D
:100E9000828104E082894FF6FD731A408281704797
:100EA000028A4FF6DF731A400282028A0A430282E4
:100EB000704721B1028A42F48042028204E0028A31
:100EC0004BF6FF731A4002827047C1F3080282801A
:100ED000704701468888C0F308007047818941F057
:100EE000010181817047028BD2B20283028B42EAF8
:100EF000012202837047028B02F47F420283028B3D
:100F00000A430283704721B1828A42F02002828222
:100F100004E0828A4FF6DF731A408282704721B163
:100F2000828A42F01002828204E0828A4FF6EF73D6
:100F30001A408282704721B1828A42F0080282827E
:100F400004E0828A4FF6F7731A4082827047828AE1
:100F50004FF6FB731A408282828A0A43828270476C
:100F600021B1828A42F00202828204E0828A4FF634
:100F7000FD731A40828270470246002013880B409E
:100F80000BB1012000E000207047CA430280704787
:100F900070B502460B460024002100250020C3F353
:100FA000421503F01F01012606FA01F1012D02D1BD
:100FB0009689314006E0022D02D1168A314001E0C7
:100FC000968A31401C12012606FA04F41688344031
:100FD00011B10CB1012000E0002070BD10B500225D
:100FE00000230A1201249440A3B2DC43048010BD04
:100FF000004C004000BCFFBF0038014031490143B4
:10100000314A1160704770B5002100230F22C47867
:1010100004B32D4C246804F4E064C4F5E064210AB0
:10102000C1F10403CA40447804FA03F184781440FF
:1010300021430901254C0678A155047804F01F05C9
:101040000124AC4005786D11AD0005F1E025C5F82F
:10105000004109E0047804F01F050124AC401C4D58
:101060000678761145F8264070BD1A4A0A400243B8
:10107000154B1B1F1A60704739B1134A121D1268B5
:101080000243114B1B1D1A6006E00F4A121D126825
:1010900082430D4B1B1D1A607047042808D14FF086
:1010A000E021096941F004014FF0E022116107E0FD
:1010B0004FF0E021096921F004014FF0E0221161B5
:1010C000704700000000FA050CED00E000E400E0CD
:1010D00080E100E080FFFF1F0CB500200190009030
:1010E0004748006840F480304549086000BF4448E4
:1010F000006800F4003000900198401C01900098B6
:1011000018B90198B0F5A06FF1D13D48006800F41E
:10111000003010B10120009001E000200090009804
:10112000012844D13748006840F010003549086074
:101130000846006820F0030008600846006840F098
:10114000020008602E4840682D4948600846406803
:1011500048600846406840F480604860084640683F
:1011600020F47C1048600846406840F4E81048606D
:101170000846006840F08070086000BF20480068A2
:1011800000F000700028F9D01D48406820F00300EE
:101190001B4948600846406840F00200486000BFB4
:1011A0001748406800F00C000828F9D101E000BFA2
:1011B000FEE70CBD10B5FFF78FFF10BD10B510484E
:1011C000006840F001000E490860084640680E497A
:1011D00008400B494860084600680C490840084927
:1011E00008600846006820F48020086008464068CF
:1011F00020F4FE00486000208860FFF7DBFF10BD90
:1012000000100240002002400000FFF8FFFFF6FE41
:10121000D2B201E000F8012B491EFBD27047002238
:10122000F6E710B513460A4604461946FFF7F0FFE5
:10123000204610BDF0B480EA0102D40F4200B2EBA8
:10124000410F02D20246084611464A0042D0C30D61
:10125000DDB2C1F3C752AD1A202D35DAC1F3160144
:1012600041F4000204B15242C5F1200602FA06F12F
:101270002A411044B3EBD05F23D0C4B1012DA0EBC1
:10128000C35009DCF0BC4FF0004202EAC352DBB2AB
:1012900000F5000000F057B9400000F1807000EB4D
:1012A000C350A0F1807040EAD170490009E04908BC
:1012B00041EAC071A0EBC35000F50000400800EB0C
:1012C000C350F0BC00F036B96142012202EB41018B
:1012D000001BF6E7F0BC704781F00041AAE780F000
:1012E0000040A7E730B480EA010202F0004530F088
:1012F000004221F0004013D090B1C30DD40DC2F3D1
:101300001601C0F31600E41A41F4000140F4000293
:101310007D34914201D3641C00E04900002C02DAC4
:1013200030BC002070474FF400000023914201D3ED
:10133000891A034340084FEA4101F7D151B1914264
:1013400002D14FF0004105E002D24FF0010101E06F
:101350006FF0010103EBC450284430BC00F0EAB840
:101360002DE9F04D81EA030404F0004B21F0004523
:1013700014464FF0000A23F0004150EA050220D045
:1013800054EA01021DD0C5F30A570246C5F3130300
:10139000C1F31300C1F30A5640F4801543F48013DF
:1013A000A7EB0608101BD64608F2FD3873EB0500C4
:1013B00002D308F1010801E092185B41B8F1000F77
:1013C00003DA00200146BDE8F08D00204FF48011C3
:1013D000064684460EE0171B73EB050705D3121B68
:1013E00063EB050306434CEA010C49084FEA300061
:1013F00092185B4150EA0107EDD152EA030012D086
:1014000082EA040083EA0501084305D0101BAB41C2
:1014100006D20122002306E000224FF0004302E042
:101420006FF0010253101AEB06004CEB085110EB61
:101430000A0041EB0B01BDE8F04D00F0B2B8962375
:101440000022114600F07FB800F0004230F000406A
:101450000AD0C10D01F56071C0F3160042EA0151D6
:10146000C20840071143704700200146704701F051
:10147000004330B421F0004150EA010206D00A0DC9
:10148000A2F56072C1F31301002A02DC30BC002017
:101490007047440F44EAC104C100E01830BC00EBBF
:1014A000C25000F047B830B50B460146002020225C
:1014B000012409E021FA02F59D4205D303FA02F561
:1014C000491B04FA02F52844151EA2F10102F1DCC1
:1014D00030BD2DE9F05F0546002092469B468846C8
:1014E0000646814640241BE02846414647462246A0
:1014F00000F01FFA53465A46C01A914110D31146C4
:101500001846224600F006FA2D1A67EB01084F46EE
:1015100022460120002100F0FDF917EB00094E41A1
:10152000201EA4F10104DFDC484631462A4643462A
:10153000BDE8F09F0029A8BF7047401C490008BFC4
:1015400020F00100704710B4B0FA80FC00FA0CF0F3
:1015500050EA010404BF10BC704749B1CCF120042B
:1015600021FA04F411FA0CF118BF012121430843B8
:10157000A3EB0C01CB1D4FEA00614FEA102042BFE4
:10158000002010BC704700EBC35010440029A4BFDA
:1015900010BC7047401C490008BF20F0010010BC7F
:1015A000704710B5141E73F1000408DA401C41F1B5
:1015B000000192185B411A4301D120F0010010BDD7
:1015C0002DE9F04D92469B4611B1B1FA81F202E04D
:1015D000B0FA80F22032904600F09CF904460F46A3
:1015E00040EA0A0041EA0B0153465A46084313D029
:1015F000114653EA010019D0C8F14002504600F0EC
:1016000098F905460E4650465946424600F082F982
:10161000084305D0012004E020463946BDE8F08D9E
:101620000020054346EAE0762C4337430A986305D9
:10163000E40AA0EB08000022FD0A44EA47540A30FD
:1016400002D500200146E9E7010510196941DDE9ED
:10165000084500196941BDE8F04DA2E72DE9FE4FAC
:10166000804681EA0300C00F0C46009021F0004143
:1016700023F00045B8EB0200A94105D240462146BF
:1016800090461C460B46024623F00040104347D0CC
:10169000270DC7F30A00C3F30A510290401A0190C4
:1016A00040286BDAC3F3130040F4801B0098924685
:1016B00020B10023D2EB030A63EB0B0B01985946D0
:1016C000C0F14002504600F025F906460D4650464E
:1016D0005946019A00F03DF910EB080061410024E1
:1016E00087EA115284EAE7731A4340D0009A62B342
:1016F000019A012A4FEA075215DC001B61EB020137
:101700004FF0004202EA0752CDE90042001C41F5C9
:10171000801132462B46FFF753FF03B0BDE8F08F30
:1017200040462146F9E7001B61EB0201001C41F530
:10173000801300185B412018A2F5001747EB030146
:1017400040EAD570B6196D4111E06D084FEA3606D2
:1017500045EAC0754FEA0752001B61EB0201001C0D
:1017600041F5801149084FEA3000001951413246D5
:101770002B4603B0BDE8F04FFFF713BF00980122DE
:1017800040000023D0EB020263EBE0730098214697
:101790004FEAE074B8EB000061EB0401E9E783F085
:1017A00000435BE781F0004158E72DE9FE4F81EAF5
:1017B000030404F0004421F0004100944FF0000BBA
:1017C00023F0004350EA01045ED052EA03045BD0E8
:1017D000C3F30A54C1F30A552C44A4F2F334019420
:1017E000A0FB0254C1F3130141F48011C3F31303AE
:1017F00043F4801301FB024400FB034E840A970A62
:1018000044EA815447EA8357A4FB076802958D0A8E
:1018100005FB07854FEA932C04FB0C542705029D1A
:101820004FEA065847EA1637B5EB08056EEB070C8A
:10183000870E920E47EA811742EA8312A7FB020144
:10184000B6EB0B0164EB00042B0D43EA0C335E187E
:1018500044EB1C50DA465146E7FB0201C5F3130482
:101860004FEA0B3343EA14534FEA0432019C43EA34
:101870000603A4F10C040294009CCDE900B4FFF728
:101880009FFE03B0BDE8F08F00200146F9E7C1F3E9
:101890000A52C1F3130140F2FF3341F480119A421E
:1018A00002DA00200146704740F233439A42A2F226
:1018B000334202DC524200F03CB800F02BB800008A
:1018C00030B5041E71F1000404DB4FF000444042C7
:1018D00064EB0101141E73F1000405DB1C464FF09C
:1018E0000043524263EB0403994208BF904230BD6B
:1018F000064C074D06E0E06840F0010394E807005D
:1019000098471034AC42F6D3FEF7F4FB5C22000893
:101910007C220008202A04DB203A00FA02F1002091
:1019200070479140C2F1200320FA03F3194390401D
:101930007047202A04DB203A21FA02F00021704788
:1019400021FA02F3D040C2F1200291400843194627
:101950007047202A06DBCB17203A41FA02F043EA0F
:10196000E07306E041FA02F3D040C2F12002914058
:1019700008431946704700000FB4084B10B504A97E
:1019800002AA039800F0CEF8044602A9002000F055
:1019900060FC204610BC5DF814FB000053220008D8
:1019A00002E008C8121F08C1002AFAD17047704728
:1019B000002001E001C1121F002AFBD17047000086
:1019C0002DE9FF5FDDE90220010DDDF838B00243AB
:1019D00018D044F61050A1F2FF3141430D140F9876
:1019E000012820D0A5EB0B00401C5FEA000A4FF055
:1019F0000004474EDFF81C91A046504616D5CAF1A8
:101A0000000728E00F98012443A2012808D00021F4
:101A100000980F9BC0E90021C0E90243BDE8FF9F89
:101A20006FEA0B01F4E7CBF10000DEE7074612E0B6
:101A3000F80707D02246334640464946FFF7B5FE31
:101A4000804689462246334610461946FFF7ADFECA
:101A500004460E467F10002FEAD1DDE90201BAF1FB
:101A6000000F42464B4602DAFFF79FFE01E0FFF708
:101A700077FC04460E460022284BFFF721FF03D8CF
:101A80004FF0FF30014607E00022254B204631464B
:101A9000FFF7E4FDFFF7FBFE102409E0002C0ADB52
:101AA0000A220023FFF715FD019B30321A55641EF0
:101AB00050EA0102F2D1641C019AC4F111031444EA
:101AC0000F9A012A03D0012208430DD10AE00843EE
:101AD00004D000204FF0110B0F9080E7A3EB0B0513
:101AE0006D1E0DE05B4504DD4FF0000205F10105C0
:101AF00004E003DA4FF00002A5F10105002AECD062
:101B000000980F99C0E90231C0E9004586E700005E
:101B1000000024400000F03F300000000000F043CF
:101B20000000E03F2DE9FF4F95B09B4689460646F1
:101B300000250FE2252877D100242746F84A012105
:101B4000059400E0044316F8013F203B01FA03F03E
:101B50001042F7D130782A2811D06FF02F03307857
:101B6000A0F13002092A16D8059A44F0020402EBCB
:101B7000820203EB42021044761C0590EFE759F80D
:101B8000042B0592002A03DA504244F400540590D5
:101B900044F00204761C30782E2816D116F8010F76
:101BA00044F004042A280DD06FF02F023078A0F101
:101BB0003003092B09D807EB870302EB4303C7184F
:101BC000761CF3E759F8047B761C30786C280FD02C
:101BD00006DC4C2817D068280DD06A2814D104E000
:101BE000742810D07A280FD10DE044F400140AE0D4
:101BF00044F4801401E044F440147278824202D12B
:101C000004F58014761C761C307866280BD013DC23
:101C1000582877D009DC002875D04528F6D046280A
:101C2000F4D047281AD19DE118E0632835D0642804
:101C300079D0652812D195E1702873D008DC672827
:101C4000F1D069286FD06E280DD06F2806D1B5E08D
:101C500073282CD0752875D0782874D05A461799D7
:101C600090476D1C75E1C4F30250022809D0032887
:101C70000DD0D9F8001004280DD00D6009F1040929
:101C800067E1D9F80010EA17C1E90052F6E7D9F880
:101C900000100D80F2E70D70F0E719F8041B8DF8C5
:101CA000001000208DF80100EA46012003E059F8F9
:101CB00004AB4FF0FF3061074FF0000102D40DE09C
:101CC00008F101018846B9420FDA8045F8DB1AF8BD
:101CD00008100029F4D108E008F10101884681428A
:101CE000FADB1AF808100029F6D105985B46A0EB3C
:101CF000080721463846179A00F094FA284400EB6A
:101D0000080507E04DE029E10DE01AF8010B5A46FD
:101D100017999047B8F10108F7D25B46214638463B
:101D2000179A13E142E00A220092C4F302524FF0E4
:101D3000000A022A08D059F804CB032A4FEAEC71B2
:101D40000AD00DE029E02AE009F1070121F007029D
:101D5000F2E802C1914609E00FFA8CFC4FEAEC71FF
:101D6000042A03D14FFA8CFC4FEAEC71002907DA00
:101D70000A460021DCF1000C61EB02012D2202E099
:101D8000220504D52B228DF80420012203E0E2076E
:101D900001D02022F7E7904659E00A2102E0102204
:101DA0000DE010214FF0000A00910BE010224FF0DF
:101DB000000A44F004040827009203E008224FF0D0
:101DC000000A0092C4F30252022A05D059F804CB4B
:101DD0000021032A08D009E009F1070121F00702D8
:101DE000F2E802C1914605E01FFA8CFC042A01D1F9
:101DF0000CF0FF0C4FF00008220728D5702806D001
:101E0000009B83F0100353EA0A0305D00EE0402242
:101E10008DF80420012208E05CEA010206D030229D
:101E20008DF804208DF8050002229046009B83F077
:101E3000080353EA0A030AD15CEA010201D16207EE
:101E400005D530228DF804204FF001087F1E582858
:101E500004D034A003900EA802900DE036A0F9E75C
:101E600053466046009AFFF734FB84460398825C31
:101E70000298401E029002705CEA0100F0D10298C4
:101E800006A9081A00F1200A600702D524F480345C
:101E900000E00127574502DDA7EB0A0000E0002023
:101EA00000EB0A01009005984144401A0590E003B8
:101EB00006D45B462146179A059800F0B3F905440D
:101EC000002706E001A85A46C05D179990476D1C8F
:101ED0007F1C4745F6DBE0030CD55B462146179A8D
:101EE000059800F09FF9054404E030205A46179900
:101EF00090476D1C0099481E00900029F5DC08E011
:101F0000029802995A460078491C02911799904705
:101F10006D1CBAF10001AAF1010AF1DC65E10000D3
:101F200009280100303132333435363738396162AF
:101F30006364656600000000303132333435363773
:101F400038394142434445460000000000F058F94A
:101F50000544761C307800287FF4ECAD19B0284693
:101F6000BDE8F08F620700D4062709F1070222F0CE
:101F7000070CFCE80223E14603F000485FEA080C86
:101F800002D00FF2702C0DE05FEA045C02D50FF274
:101F9000682C07E05FEAC47C02D00FF2602C01E0FD
:101FA000AFF2700C4FF0FF3823F00043CDF850C073
:101FB00065280CD006DC452809D046281DD04728C6
:101FC0003DD13DE0662818D067287ED138E0002159
:101FD000112F01DB112000E0781CCDE9000106A9DA
:101FE0000EA8FFF7EDFCDDE90F010E9A0391002129
:101FF000009207F1010A04914DE04FF00040009774
:10200000CDE9011006A90EA8FFF7DAFCDDE90F0201
:1020100003920E9B11990022DDF80CA0009304920C
:1020200011B9791C00EB010AB7EB0A0004D4C0F126
:10203000FF3007F1010A0490AAEB0700019044E089
:10204000012F00DA01270021112F01DD112000E00E
:102050003846CDE9000106A90EA8FFF7B1FCDDE97D
:102060000F010E9A0391002104910092BA462107B4
:102070000CD40399514500DA8A46BAF1010F05DD07
:10208000009AAAF10101515C302908D0B84202DA65
:1020900010F1040F06DA0121CDE9011015E0AAF1D3
:1020A0000101E9E7002805DC049901440491AAEB49
:1020B000000102E0411C514500DD8A460499401AA6
:1020C000401C01904FF000400290200704D401987A
:1020D000504501DBCDF8048000208DF84F000298B8
:1020E0000DF14F07B0F1004F25D02B200E90029834
:1020F0004FF0020800280CDA404202902D200E908A
:1021000007E00A210298FFF7CEF93031029007F874
:10211000011DB8F10001A8F10108F2DC02980028C5
:10212000EFD1791E0E980870307800F0200040F052
:10213000450007F8020D12A8C01B00F1070814980B
:10214000007800B1012000EB0A01019801EBE07179
:1021500005984144401A401E0590E00306D45B46B2
:102160002146179A059800F05DF805441498007808
:1021700018B15A46179990476D1CE00324D55B4669
:102180002146179A059800F04DF805441CE0049884
:10219000002807DBDDE90301884203DD0098405C8D
:1021A000179901E0179930205A469047049805F195
:1021B0000105401C04900198401E019004D12E207E
:1021C0005A46179990476D1CBAF10001AAF1010A0D
:1021D000DDDC05E017F8010B5A46179990476D1C96
:1021E000B8F10001A8F10108F4DC5B462146179A1A
:1021F0000598ABE62D0000002B0000002000000039
:102200002DE9F041044600251E461746880404D4F3
:1022100005E039462020B0476D1C641EF9D52846DC
:10222000BDE8F0812DE9F041044600251E469046A8
:10223000C80301D5302700E02027880404D505E035
:1022400041463846B0476D1C641EF9D52846BDE8A6
:10225000F0810A68531C0B60107070477C220008E4
:102260000000002024000000A0190008A02200089F
:1022700024000020CC020000B0190008000000007B
:102280000000000000000000000000000001020348
:1022900004010203040607080902040608000000FE
:0400000508000101ED
:00000001FF
